{
  "contractName": "L1Bridge",
  "abi": [
    {
      "inputs": [
        {
          "internalType": "address",
          "name": "_tokenAddress",
          "type": "address"
        }
      ],
      "stateMutability": "nonpayable",
      "type": "constructor"
    },
    {
      "inputs": [
        {
          "internalType": "address",
          "name": "owner",
          "type": "address"
        }
      ],
      "name": "OwnableInvalidOwner",
      "type": "error"
    },
    {
      "inputs": [
        {
          "internalType": "address",
          "name": "account",
          "type": "address"
        }
      ],
      "name": "OwnableUnauthorizedAccount",
      "type": "error"
    },
    {
      "anonymous": false,
      "inputs": [
        {
          "indexed": true,
          "internalType": "address",
          "name": "user",
          "type": "address"
        },
        {
          "indexed": false,
          "internalType": "uint256",
          "name": "amount",
          "type": "uint256"
        },
        {
          "indexed": false,
          "internalType": "uint256",
          "name": "timestamp",
          "type": "uint256"
        }
      ],
      "name": "Deposit",
      "type": "event"
    },
    {
      "anonymous": false,
      "inputs": [
        {
          "indexed": true,
          "internalType": "address",
          "name": "previousOwner",
          "type": "address"
        },
        {
          "indexed": true,
          "internalType": "address",
          "name": "newOwner",
          "type": "address"
        }
      ],
      "name": "OwnershipTransferred",
      "type": "event"
    },
    {
      "anonymous": false,
      "inputs": [
        {
          "indexed": true,
          "internalType": "address",
          "name": "user",
          "type": "address"
        },
        {
          "indexed": false,
          "internalType": "uint256",
          "name": "amount",
          "type": "uint256"
        },
        {
          "indexed": false,
          "internalType": "uint256",
          "name": "timestamp",
          "type": "uint256"
        }
      ],
      "name": "Withdrawal",
      "type": "event"
    },
    {
      "inputs": [
        {
          "internalType": "address",
          "name": "",
          "type": "address"
        }
      ],
      "name": "depositedBalances",
      "outputs": [
        {
          "internalType": "uint256",
          "name": "",
          "type": "uint256"
        }
      ],
      "stateMutability": "view",
      "type": "function"
    },
    {
      "inputs": [],
      "name": "limit",
      "outputs": [
        {
          "internalType": "uint256",
          "name": "",
          "type": "uint256"
        }
      ],
      "stateMutability": "view",
      "type": "function"
    },
    {
      "inputs": [],
      "name": "owner",
      "outputs": [
        {
          "internalType": "address",
          "name": "",
          "type": "address"
        }
      ],
      "stateMutability": "view",
      "type": "function"
    },
    {
      "inputs": [],
      "name": "renounceOwnership",
      "outputs": [],
      "stateMutability": "nonpayable",
      "type": "function"
    },
    {
      "inputs": [],
      "name": "token",
      "outputs": [
        {
          "internalType": "contract ERC20",
          "name": "",
          "type": "address"
        }
      ],
      "stateMutability": "view",
      "type": "function"
    },
    {
      "inputs": [
        {
          "internalType": "address",
          "name": "newOwner",
          "type": "address"
        }
      ],
      "name": "transferOwnership",
      "outputs": [],
      "stateMutability": "nonpayable",
      "type": "function"
    },
    {
      "inputs": [
        {
          "internalType": "uint256",
          "name": "amount",
          "type": "uint256"
        }
      ],
      "name": "deposit",
      "outputs": [],
      "stateMutability": "nonpayable",
      "type": "function"
    },
    {
      "inputs": [
        {
          "internalType": "uint256",
          "name": "newLimit",
          "type": "uint256"
        }
      ],
      "name": "setLimit",
      "outputs": [],
      "stateMutability": "nonpayable",
      "type": "function"
    },
    {
      "inputs": [
        {
          "internalType": "address",
          "name": "recipient",
          "type": "address"
        },
        {
          "internalType": "uint256",
          "name": "amount",
          "type": "uint256"
        }
      ],
      "name": "withdraw",
      "outputs": [],
      "stateMutability": "nonpayable",
      "type": "function"
    }
  ],
  "bytecode": "0x608060405268056bc75e2d631000006002553480156200001d575f80fd5b506040516200114638038062001146833981810160405281019062000043919062000236565b335f73ffffffffffffffffffffffffffffffffffffffff168173ffffffffffffffffffffffffffffffffffffffff1603620000b7575f6040517f1e4fbdf7000000000000000000000000000000000000000000000000000000008152600401620000ae919062000277565b60405180910390fd5b620000c8816200011060201b60201c565b508060015f6101000a81548173ffffffffffffffffffffffffffffffffffffffff021916908373ffffffffffffffffffffffffffffffffffffffff1602179055505062000292565b5f805f9054906101000a900473ffffffffffffffffffffffffffffffffffffffff169050815f806101000a81548173ffffffffffffffffffffffffffffffffffffffff021916908373ffffffffffffffffffffffffffffffffffffffff1602179055508173ffffffffffffffffffffffffffffffffffffffff168173ffffffffffffffffffffffffffffffffffffffff167f8be0079c531659141344cd1fd0a4f28419497f9722a3daafe3b4186f6b6457e060405160405180910390a35050565b5f80fd5b5f73ffffffffffffffffffffffffffffffffffffffff82169050919050565b5f6200020082620001d5565b9050919050565b6200021281620001f4565b81146200021d575f80fd5b50565b5f81519050620002308162000207565b92915050565b5f602082840312156200024e576200024d620001d1565b5b5f6200025d8482850162000220565b91505092915050565b6200027181620001f4565b82525050565b5f6020820190506200028c5f83018462000266565b92915050565b610ea680620002a05f395ff3fe608060405234801561000f575f80fd5b5060043610610091575f3560e01c8063a4d66daf11610064578063a4d66daf14610109578063b6b55f2514610127578063f2fde38b14610143578063f3fef3a31461015f578063fc0c546a1461017b57610091565b806327ea6f2b14610095578063715018a6146100b15780637d995311146100bb5780638da5cb5b146100eb575b5f80fd5b6100af60048036038101906100aa91906109b3565b610199565b005b6100b96101ab565b005b6100d560048036038101906100d09190610a38565b6101be565b6040516100e29190610a72565b60405180910390f35b6100f36101d3565b6040516101009190610a9a565b60405180910390f35b6101116101fa565b60405161011e9190610a72565b60405180910390f35b610141600480360381019061013c91906109b3565b610200565b005b61015d60048036038101906101589190610a38565b6104f7565b005b61017960048036038101906101749190610ab3565b61057b565b005b610183610808565b6040516101909190610b4c565b60405180910390f35b6101a161082d565b8060028190555050565b6101b361082d565b6101bc5f6108b4565b565b6003602052805f5260405f205f915090505481565b5f805f9054906101000a900473ffffffffffffffffffffffffffffffffffffffff16905090565b60025481565b8060015f9054906101000a900473ffffffffffffffffffffffffffffffffffffffff1673ffffffffffffffffffffffffffffffffffffffff166370a08231336040518263ffffffff1660e01b815260040161025b9190610a9a565b602060405180830381865afa158015610276573d5f803e3d5ffd5b505050506040513d601f19601f8201168201806040525081019061029a9190610b79565b10156102db576040517f08c379a00000000000000000000000000000000000000000000000000000000081526004016102d290610bfe565b60405180910390fd5b60025460035f3373ffffffffffffffffffffffffffffffffffffffff1673ffffffffffffffffffffffffffffffffffffffff1681526020019081526020015f2054826103279190610c49565b1115610368576040517f08c379a000000000000000000000000000000000000000000000000000000000815260040161035f90610cc6565b60405180910390fd5b5f60015f9054906101000a900473ffffffffffffffffffffffffffffffffffffffff1673ffffffffffffffffffffffffffffffffffffffff166323b872dd336103af6101d3565b856040518463ffffffff1660e01b81526004016103ce93929190610ce4565b6020604051808303815f875af11580156103ea573d5f803e3d5ffd5b505050506040513d601f19601f8201168201806040525081019061040e9190610d4e565b905080610450576040517f08c379a000000000000000000000000000000000000000000000000000000000815260040161044790610dc3565b60405180910390fd5b8160035f3373ffffffffffffffffffffffffffffffffffffffff1673ffffffffffffffffffffffffffffffffffffffff1681526020019081526020015f205f82825461049c9190610c49565b925050819055503373ffffffffffffffffffffffffffffffffffffffff167f90890809c654f11d6e72a28fa60149770a0d11ec6c92319d6ceb2bb0a4ea1a1583426040516104eb929190610de1565b60405180910390a25050565b6104ff61082d565b5f73ffffffffffffffffffffffffffffffffffffffff168173ffffffffffffffffffffffffffffffffffffffff160361056f575f6040517f1e4fbdf70000000000000000000000000000000000000000000000000000000081526004016105669190610a9a565b60405180910390fd5b610578816108b4565b50565b8060015f9054906101000a900473ffffffffffffffffffffffffffffffffffffffff1673ffffffffffffffffffffffffffffffffffffffff166370a08231336040518263ffffffff1660e01b81526004016105d69190610a9a565b602060405180830381865afa1580156105f1573d5f803e3d5ffd5b505050506040513d601f19601f820116820180604052508101906106159190610b79565b1015610656576040517f08c379a000000000000000000000000000000000000000000000000000000000815260040161064d90610bfe565b60405180910390fd5b61065e6101d3565b73ffffffffffffffffffffffffffffffffffffffff163373ffffffffffffffffffffffffffffffffffffffff16146106cb576040517f08c379a00000000000000000000000000000000000000000000000000000000081526004016106c290610e52565b60405180910390fd5b5f60015f9054906101000a900473ffffffffffffffffffffffffffffffffffffffff1673ffffffffffffffffffffffffffffffffffffffff166323b872dd6107116101d3565b85856040518463ffffffff1660e01b815260040161073193929190610ce4565b6020604051808303815f875af115801561074d573d5f803e3d5ffd5b505050506040513d601f19601f820116820180604052508101906107719190610d4e565b9050806107b3576040517f08c379a00000000000000000000000000000000000000000000000000000000081526004016107aa90610dc3565b60405180910390fd5b8273ffffffffffffffffffffffffffffffffffffffff167fdf273cb619d95419a9cd0ec88123a0538c85064229baa6363788f743fff90deb83426040516107fb929190610de1565b60405180910390a2505050565b60015f9054906101000a900473ffffffffffffffffffffffffffffffffffffffff1681565b610835610975565b73ffffffffffffffffffffffffffffffffffffffff166108536101d3565b73ffffffffffffffffffffffffffffffffffffffff16146108b257610876610975565b6040517f118cdaa70000000000000000000000000000000000000000000000000000000081526004016108a99190610a9a565b60405180910390fd5b565b5f805f9054906101000a900473ffffffffffffffffffffffffffffffffffffffff169050815f806101000a81548173ffffffffffffffffffffffffffffffffffffffff021916908373ffffffffffffffffffffffffffffffffffffffff1602179055508173ffffffffffffffffffffffffffffffffffffffff168173ffffffffffffffffffffffffffffffffffffffff167f8be0079c531659141344cd1fd0a4f28419497f9722a3daafe3b4186f6b6457e060405160405180910390a35050565b5f33905090565b5f80fd5b5f819050919050565b61099281610980565b811461099c575f80fd5b50565b5f813590506109ad81610989565b92915050565b5f602082840312156109c8576109c761097c565b5b5f6109d58482850161099f565b91505092915050565b5f73ffffffffffffffffffffffffffffffffffffffff82169050919050565b5f610a07826109de565b9050919050565b610a17816109fd565b8114610a21575f80fd5b50565b5f81359050610a3281610a0e565b92915050565b5f60208284031215610a4d57610a4c61097c565b5b5f610a5a84828501610a24565b91505092915050565b610a6c81610980565b82525050565b5f602082019050610a855f830184610a63565b92915050565b610a94816109fd565b82525050565b5f602082019050610aad5f830184610a8b565b92915050565b5f8060408385031215610ac957610ac861097c565b5b5f610ad685828601610a24565b9250506020610ae78582860161099f565b9150509250929050565b5f819050919050565b5f610b14610b0f610b0a846109de565b610af1565b6109de565b9050919050565b5f610b2582610afa565b9050919050565b5f610b3682610b1b565b9050919050565b610b4681610b2c565b82525050565b5f602082019050610b5f5f830184610b3d565b92915050565b5f81519050610b7381610989565b92915050565b5f60208284031215610b8e57610b8d61097c565b5b5f610b9b84828501610b65565b91505092915050565b5f82825260208201905092915050565b7f496e73756666696369656e742062616c616e63650000000000000000000000005f82015250565b5f610be8601483610ba4565b9150610bf382610bb4565b602082019050919050565b5f6020820190508181035f830152610c1581610bdc565b9050919050565b7f4e487b71000000000000000000000000000000000000000000000000000000005f52601160045260245ffd5b5f610c5382610980565b9150610c5e83610980565b9250828201905080821115610c7657610c75610c1c565b5b92915050565b7f4465706f73697420616d6f756e74206578636565647320746865206c696d69745f82015250565b5f610cb0602083610ba4565b9150610cbb82610c7c565b602082019050919050565b5f6020820190508181035f830152610cdd81610ca4565b9050919050565b5f606082019050610cf75f830186610a8b565b610d046020830185610a8b565b610d116040830184610a63565b949350505050565b5f8115159050919050565b610d2d81610d19565b8114610d37575f80fd5b50565b5f81519050610d4881610d24565b92915050565b5f60208284031215610d6357610d6261097c565b5b5f610d7084828501610d3a565b91505092915050565b7f546f6b656e207472616e73666572206661696c656400000000000000000000005f82015250565b5f610dad601583610ba4565b9150610db882610d79565b602082019050919050565b5f6020820190508181035f830152610dda81610da1565b9050919050565b5f604082019050610df45f830185610a63565b610e016020830184610a63565b9392505050565b7f43616c6c6572206973206e6f7420746865206f776e65720000000000000000005f82015250565b5f610e3c601783610ba4565b9150610e4782610e08565b602082019050919050565b5f6020820190508181035f830152610e6981610e30565b905091905056fea26469706673582212205c3600f101bf16e0957d42a7beb78ec58931b40c631cb201ea16fb2f4624c90c64736f6c63430008150033",
  "immutableReferences": {},
  "source": "// SPDX-License-Identifier: MIT\r\npragma solidity ^0.8.0;\r\n\r\nimport \"@openzeppelin/contracts/token/ERC20/ERC20.sol\";\r\nimport \"@openzeppelin/contracts/access/Ownable.sol\";\r\n\r\ncontract L1Bridge is Ownable {\r\n    ERC20 public token;\r\n    uint256 public limit = 100 * 10**18; // Default limit set to 100 AGLD (assuming 18 decimals)\r\n    // Mapping to store user deposits (for record-keeping only, tokens are not locked)\r\n    mapping(address => uint256) public depositedBalances;\r\n\r\n    // Event declarations\r\n    event Deposit(address indexed user, uint256 amount, uint256 timestamp);\r\n    event Withdrawal(address indexed user, uint256 amount, uint256 timestamp);\r\n\r\n    // Constructor: Initialize the contract address of the ERC20 token\r\n    constructor(address _tokenAddress) Ownable(msg.sender) {\r\n        token = ERC20(_tokenAddress);\r\n    }\r\n\r\n    // Users deposit tokens, tokens are directly sent to the contract owner\r\n    function deposit(uint256 amount) external {\r\n        require(token.balanceOf(msg.sender) >= amount, \"Insufficient balance\");\r\n\r\n        require(amount + depositedBalances[msg.sender] <= limit, \"Deposit amount exceeds the limit\");\r\n\r\n        // Transfer tokens from the user's account to the contract owner\r\n        bool success = token.transferFrom(msg.sender, owner(), amount);\r\n        require(success, \"Token transfer failed\");\r\n\r\n        // Update the user's deposit record (for record-keeping only)\r\n        depositedBalances[msg.sender] += amount;\r\n\r\n        // Trigger the Deposit event\r\n        emit Deposit(msg.sender, amount, block.timestamp);\r\n    }\r\n\r\n    // Function to update the deposit limit, only callable by the owner\r\n    function setLimit(uint256 newLimit) external onlyOwner {\r\n        limit = newLimit;\r\n    }\r\n\r\n    // Withdrawal operation executed by the contract owner, tokens are transferred to the specified account\r\n    function withdraw(address recipient, uint256 amount) external {\r\n        // Log the start of execution\r\n        require(token.balanceOf(msg.sender) >= amount, \"Insufficient balance\");\r\n        require(msg.sender == owner(), \"Caller is not the owner\");\r\n\r\n        // Transfer tokens from the contract owner's account to the specified account\r\n        bool success = token.transferFrom(owner(), recipient, amount);\r\n        require(success, \"Token transfer failed\");\r\n     \r\n        // Trigger the Withdrawal event\r\n        emit Withdrawal(recipient, amount, block.timestamp);\r\n    }\r\n}\r\n\r\n\r\n",
  "sourcePath": "D:\\block\\web3-test\\contracts\\l1Bridge.sol",
  "compiler": {
    "name": "solc",
    "version": "0.8.21+commit.d9974bed.Emscripten.clang"
  },
  "schemaVersion": "3.4.16",
  "updatedAt": "2025-03-05T13:04:38.401Z",
  "devdoc": {
    "errors": {
      "OwnableInvalidOwner(address)": [
        {
          "details": "The owner is not a valid owner account. (eg. `address(0)`)"
        }
      ],
      "OwnableUnauthorizedAccount(address)": [
        {
          "details": "The caller account is not authorized to perform an operation."
        }
      ]
    },
    "kind": "dev",
    "methods": {
      "owner()": {
        "details": "Returns the address of the current owner."
      },
      "renounceOwnership()": {
        "details": "Leaves the contract without owner. It will not be possible to call `onlyOwner` functions. Can only be called by the current owner. NOTE: Renouncing ownership will leave the contract without an owner, thereby disabling any functionality that is only available to the owner."
      },
      "transferOwnership(address)": {
        "details": "Transfers ownership of the contract to a new account (`newOwner`). Can only be called by the current owner."
      }
    },
    "version": 1
  },
  "userdoc": {
    "kind": "user",
    "methods": {},
    "version": 1
  }
}